:100000000C943D000C945A000C945A000C945A0025
:100010000C945A000C945A000C9471070C945A00DA
:100020000C945A000C945A000C945A000C945A00E8
:100030000C945A000C945A000C94FA220C945A0016
:100040000C945A000C945A000C9474050C945A00A9
:100050000C945A000C945A000C945A000C945A00B8
:100060000C945A000C945A0030302E30302E30321E
:100070000031302E342E3300000011241FBECFEF8C
:10008000D8E0DEBFCDBF11E0A0E0B1E0EAE0F7E4E8
:1000900002C005900D92AC36B107D9F714E0ACE67A
:1000A000B1E001C01D92A330B107E1F70E948400C6
:1000B0000C9483230C945801DF93CF93CDB7DEB714
:1000C000CF91DF910895DF93CF93CDB7DEB70E9434
:1000D0000201CF91DF910895DF93CF93CDB7DEB7C3
:1000E000199ACF91DF910895DF93CF93CDB7DEB703
:1000F000299ACF91DF910895DF93CF93CDB7DEB7E3
:100100002998CF91DF910895DF93CF93CDB7DEB7D4
:10011000F8940E9436010E94400A80E090E0CF915E
:10012000DF910895DF93CF9300D000D000D0CDB7FA
:10013000DEB79A8389837C836B835E834D83E981F9
:10014000FA818EE991E091838083EB81FC818CE6DA
:1001500091E091838083ED81FE8182E390E0A0E0D5
:10016000B0E080839183A283B38326960FB6F89480
:10017000DEBF0FBECDBFCF91DF910895DF93CF9348
:1001800000D000D000D0CDB7DEB79A8389837C83BE
:100190006B835E834D83E981FA8188EF91E09183DF
:1001A0008083EB81FC8186EC91E091838083ED81FB
:1001B000FE8182E390E0A0E0B0E080839183A2839F
:1001C000B38326960FB6F894DEBF0FBECDBFCF9196
:1001D000DF910895DF93CF9300D000D0CDB7DEB785
:1001E0009A8389837C836B830F900F900F900F907D
:1001F000CF91DF910895DF93CF93CDB7DEB7CF9145
:10020000DF910895DF93CF93CDB7DEB7E4E2F0E05E
:1002100082E08083E5E2F0E01082EAE2F0E082E052
:100220008083EBE2F0E01082CF91DF910895DF93BD
:10023000CF93CDB7DEB7199ACF91DF910895DF93B1
:10024000CF93CDB7DEB7299ACF91DF910895DF9391
:10025000CF93CDB7DEB72998CF91DF910895DF9383
:10026000CF93CDB7DEB7CF91DF910895DF93CF93D2
:10027000CDB7DEB70E9465010E947F010E945C003D
:100280000E9403070E9463000E94ED030E94AD04D8
:100290000E949101CF91DF910895DF93CF93CDB765
:1002A000DEB7809120028823E1F3CF91DF9108959A
:1002B000CDB7DEB7A991B881AA0FBB1FA0932302C7
:1002C000B09324020C940000FFCFDF93CF9300D0B3
:1002D00000D00F92CDB7DEB7E4E5F0E080818983EE
:1002E0008981898189818981E4E5F0E010820F901C
:1002F0000F900F900F900F90CF91DF910895DF93A3
:10030000CF93CDB7DEB7E5E5F0E081E08083A5E5EA
:10031000B0E0E5E5F0E080818C7F8C93CF91DF91B8
:100320000895AF92BF92CF92DF92EF920F931F93F7
:10033000DF93CF93CDB7DEB78DEB91E021E431E0D1
:10034000E2E5F2E0ADEAB2E0B9012BE530E040E0F1
:1003500050E000E010E00F2EF3E0EF2EF02D6F01E3
:100360005D010E948607CF91DF911F910F91EF9061
:10037000DF90CF90BF90AF900895DF93CF9300D0E0
:10038000CDB7DEB79A83898380E00E9404049093FE
:100390002C0280932B020E94630280E090E00E9476
:1003A000BE0F8093D50281E090E00E941E0AECCF40
:1003B000DF93CF9300D0CDB7DEB70E944904809180
:1003C0002E0290912F029A83898389819A818130AC
:1003D000910581F089819A81823091056CF1898142
:1003E0009A8182309105B1F089819A81833091059B
:1003F00009F122C00E94740081E291E02DE232E016
:10040000B9010E94C605882F90E090933102809335
:10041000300212C00E94740081E291E02DE232E0CD
:10042000B9010E945406882F90E090933102809386
:10043000300202C00E949F020E948104DC01CB01B5
:100440008093270290932802A0932902B0932A0256
:1004500080912E0290912F02009719F18091300225
:1004600090913102009719F40E947C001AC080918B
:100470003002909131028330910519F40E947C0082
:1004800010C080913002909131028230910519F4B0
:100490000E947C0006C010922F0210922E020E9431
:1004A0007C0080912E0290912F028430910534F0CF
:1004B0000E947C0010922F0210922E020F900F903B
:1004C000CF91DF910895DF93CF9300D0CDB7DEB702
:1004D00081E08A8385E292E09E012E5F3F4FB90161
:1004E0000E94C60589838981882371F082E392E0A6
:1004F00026E431E0B90147E050E00E941F238981E2
:10050000805D8093390209C08091250222E332E0A8
:10051000B9010E94D9028093260282E392E026E28A
:1005200032E0B9010E94540689838981882311F041
:100530000E9474000F900F90CF91DF910895DF9388
:10054000CF9300D0CDB7DEB781E08A831982809146
:100550002502882351F485E292E09E012E5F3F4FF1
:10056000B9010E94C60589830AC082E392E026E2AF
:1005700032E0B9010E9454068983109225028981D4
:10058000882F90E0009781F480912602882351F40F
:100590008091250222E332E0B9010E94D9028093C2
:1005A000260202C0109226020F900F90CF91DF9189
:1005B0000895DF93CF93CDB7DEB727970FB6F894A2
:1005C000DEBF0FBECDBF8B837D836C831A828B8190
:1005D000282F30E03F832E838E819F8183369105C3
:1005E00009F443C02E813F81243631055CF48E81AD
:1005F0009F818136910591F02E813F812236310510
:10060000C9F056C08E819F8184369105D1F12E812B
:100610003F812536310509F440C04AC08C819D8157
:1006200021E231E0B90140E250E00E941F2380E264
:100630008A833EC0198213C08981282F30E08C81C3
:100640009D81DC01A20FB31F8981882F90E0FC01FE
:10065000EF5DFE4F80818C9389818F5F89838981D3
:10066000803250F389818A8323C08C819D8128E662
:1006700030E0B90149E050E00E942F2389E08A83ED
:1006800017C08C819D8121E730E0B90149E050E03D
:100690000E942F2389E08A830BC080912B029091C6
:1006A0002C022C813D81B9010E943E2380E28A8385
:1006B0008A8127960FB6F894DEBF0FBECDBFCF91CB
:1006C000DF910895DF93CF93CDB7DEB7E4E4F0E098
:1006D00082E08083E5E4F0E085E08083E7E4F0E019
:1006E0008DE78083E8E4F0E01082EEE6F0E082E05F
:1006F0008083E5E3F0E083E08083E6E4F0E01082CD
:10070000CF91DF910895DF93CF93CDB7DEB72897D0
:100710000FB6F894DEBF0FBECDBF98878F8381E000
:100720008C831A8219821D821E828F819885009780
:1007300009F441C08F8198859C0140E050E080E041
:1007400094E2A4EFB0E0BC01CD010E94FD22DA01E9
:10075000C9019A83898381E08B8389819A8121E011
:1007600081309207C8F08B81882F90E0FC01EC5A11
:10077000FE4F8081282F30E089819A81022E02C0AD
:10078000969587950A94E2F79A8389838B818F5F88
:100790008B838B81863008F38B81863061F08B816F
:1007A000882F90E0FC01E25BFE4F80818D83898180
:1007B00081508E831C82E5E4F0E08D818083E7E444
:1007C000F0E08E8180838C8128960FB6F894DEBF8E
:1007D0000FBECDBFCF91DF910895DF93CF93CDB7FB
:1007E000DEB7E0E8F0E01082E1E8F0E081E080834D
:1007F000E2E8F0E01082E5E8F0E01082E4E8F0E002
:100800001082CF91DF910895DF93CF9300D000D075
:100810000F92CDB7DEB78D838FEF9FEF9A838983D9
:100820008D81823060F58D81882F90E0880F991F2F
:10083000FC01EA52FD4F808191819C838B838D81E5
:10084000882F90E0E4E8F0E020813181880F991F43
:10085000FC01EA52FD4F318320838D81882F90E087
:10086000880F991FFC01EA52FD4F208131818B8155
:100870009C81A901481B590BCA019A8389838981EC
:100880009A810F900F900F900F900F90CF91DF9162
:100890000895DF93CF93CDB7DEB7E4E8F0E0808131
:1008A00091819093DB028093DA02CF91DF910895DA
:1008B000DF93CF9300D000D0CDB7DEB78091DA02BE
:1008C0009091DB029C838B83E4E8F0E0808191814E
:1008D0009093DB028093DA022091DA023091DB02FE
:1008E0008B819C81A901481B590BCA019A8389837A
:1008F00089819A810F900F900F900F90CF91DF9187
:100900000895DF93CF9300D000D0CDB7DEB70E941B
:100910005804CC01A0E0B0E089839A83AB83BC8308
:1009200089819A81AB81BC81880F991FAA1FBB1F47
:10093000880F991FAA1FBB1F89839A83AB83BC832F
:1009400089819A81AB81BC81BC01CD010F900F9050
:100950000F900F90CF91DF910895AF92BF92CF92F9
:10096000DF92EF920F931F93DF93CF93CDB7DEB754
:10097000E5ECF0E01082E4ECF0E087E68083E0EC68
:10098000F0E01082E1ECF0E088E18083E2ECF0E05E
:1009900086E080838AEE94E02AE531E0E7EEF2E03B
:1009A000ADE1B3E0B90126E330E040E050E000E023
:1009B00010E0EE246894E1F86F015D010E94860763
:1009C000CF91DF911F910F91EF90DF90CF90BF906B
:1009D000AF900895DF93CF9300D0CDB7DEB79A8361
:1009E00089830E94FE0480E090E00E94BE0F809305
:1009F000E6028AE090E00E941E0AF3CFDF93CF93D5
:100A0000CDB7DEB70E940705CF91DF910895DF9340
:100A1000CF93CDB7DEB72A970FB6F894DEBF0FBEDF
:100A2000CDBF0FB6F8940F928091DC02898380913C
:100A3000DD029091DE02A091DF02B091E0028A8394
:100A40009B83AC83BD838091E1029091E202A091EF
:100A5000E302B091E4028E839F83A887B987E1EC1B
:100A6000F0E080818A870F900FBE8981882F90E007
:100A700080719070009729F08091E50284608093E6
:100A8000E5028981882F90E088709070009729F0A6
:100A90008091E50282608093E5028981882F90E051
:100AA00084709070009729F08091E50281608093B6
:100AB000E5028A8588237CF48D81882361F4809106
:100AC000E50288608093E502A1ECB0E0E1ECF0E0A3
:100AD00080818F778C932A960FB6F894DEBF0FBE75
:100AE000CDBFCF91DF9108951F920F920FB60F9255
:100AF00011242F933F938F939F93AF93BF93EF93C3
:100B0000FF93DF93CF93CDB7DEB78091DD02909155
:100B1000DE02009761F18091E002882341F1E0EC70
:100B2000F0E080818093DC022091DD023091DE02D2
:100B30008091DF02882F90E0D901A80FB91FE6EC61
:100B4000F0E080818C938091DF028F5F8093DF02E1
:100B50009091E0028091DF02891748F01092E00244
:100B6000A1ECB0E0E1ECF0E080818F778C93CF9145
:100B7000DF91FF91EF91BF91AF919F918F913F9145
:100B80002F910F900FBE0F901F901895DF93CF936A
:100B9000CDB7DEB72A970FB6F894DEBF0FBECDBF34
:100BA00098878F837A8769871A8219820FB6F8949B
:100BB0000F928091DD029091DE02A091DF02B09150
:100BC000E0028B839C83AD83BE830F900FBE8F8129
:100BD0009885009749F089859A85009729F0E985DD
:100BE000FA858081882319F481E089834AC08E8147
:100BF000882319F082E0898344C0E985FA858081E1
:100C0000813420F0E985FA8580E480830FB6F8947A
:100C10000F928F8198859093DE028093DD0210926F
:100C2000DF02E985FA8580818093E0020F900FBE94
:100C3000A1ECB0E0E1ECF0E0808180688C930FB62D
:100C4000F8940F928091E0028E830F900FBE8E81F8
:100C50008823A9F78091DC028A838091DD0290913C
:100C6000DE02A091DF02B091E0028B839C83AD8312
:100C7000BE838D81E985FA8580831092DE02109211
:100C8000DD028A81882F90E08C719070009711F0BE
:100C900084E0898389812A960FB6F894DEBF0FBE5F
:100CA000CDBFCF91DF910895DF93CF93CDB7DEB75E
:100CB00029970FB6F894DEBF0FBECDBF9F838E83FA
:100CC0007987688719820FB6F8940F928091E102B4
:100CD0009091E202A091E302B091E4028A839B83A7
:100CE000AC83BD830F900FBE8E819F81009749F02A
:100CF00088859985009729F0E885F9858081882382
:100D000019F481E089833EC08D81882319F082E047
:100D1000898338C02A813B818E819F8128173907BA
:100D200089F1E885F9858081813420F0E885F985AD
:100D300080E480830FB6F8940F928E819F81909308
:100D4000E2028093E1021092E302E885F985808156
:100D50008093E4020F900FBE0E94CC068091E102C6
:100D60009091E202A091E302B091E4028A839B8316
:100D7000AC83BD838C81E885F98580831092E20283
:100D80001092E102898129960FB6F894DEBF0FBE5A
:100D9000CDBFCF91DF910895DF93CF93CDB7DEB76D
:100DA00025C0E0ECF0E08081882F90E080729070A8
:100DB0000097B9F3A6ECB0E02091E1023091E20295
:100DC0008091E302882F90E0F901E80FF91F8081FC
:100DD0008C938091E3028F5F8093E3029091E40211
:100DE0008091E302891710F01092E4028091E102F1
:100DF0009091E202009721F08091E402882389F625
:100E0000CF91DF910895AF92BF92CF92DF92EF9290
:100E10000F931F93DF93CF93CDB7DEB780915F0120
:100E200090916001009759F088E190E026EC0FB6B0
:100E3000F894A895809360000FBE209360008EE325
:100E400097E021E631E0E7E4F3E0ADE7B3E0B90194
:100E500026E330E040E050E000E010E0EE24E394D0
:100E60006F015D010E948607CF91DF911F910F9165
:100E7000EF90DF90CF90BF90AF900895DF93CF9326
:100E800000D0CDB7DEB79A8389830E94520780E0F5
:100E900090E00E94BE0F809346038BE390E00E9497
:100EA0001E0AF3CFDF93CF930F92CDB7DEB7E0E604
:100EB000F0E08081898380915F01909160010097CB
:100EC00019F0A895109245030F90CF91DF910895E6
:100ED000DF93CF93CDB7DEB780914503CF91DF91FC
:100EE00008951F920F920FB60F9211248F93DF93E4
:100EF000CF93CDB7DEB781E080934503CF91DF91EB
:100F00008F910F900FBE0F901F9018958F929F9208
:100F1000AF92BF92CF92DF92EF920F931F93DF9326
:100F2000CF93CDB7DEB763970FB6F894DEBF0FBE91
:100F3000CDBF9E838D8378876F8329873A874B87C0
:100F40005C871E870D87EF86D98AC88ABB8AAA8AE2
:100F50008A899B89009741F188899989009721F1B5
:100F60008A899B899A838983E981FA818889998909
:100F7000908F878B8D819E816F81788529853A85B9
:100F80004B855C85ED85FE85DE011396A980BA80D0
:100F90008F01EF846D01882499240E94EA078981DA
:100FA0009A810E94C10802C01C821B828B819C8195
:100FB00063960FB6F894DEBF0FBECDBFCF91DF9121
:100FC0001F910F91EF90DF90CF90BF90AF909F90C7
:100FD0008F9008958F929F92AF92BF92CF92DF929F
:100FE000EF920F931F93DF93CF93CDB7DEB7649744
:100FF0000FB6F894DEBF0FBECDBF9D838C837F8379
:101000006E83288739874A875B871D870C87EE8622
:10101000D88ACF86BA8AA98A9C8A8B8AE989FA8972
:101020008789908D2885398565EA70E0A9010E943D
:101030002823E989FA892789308D88859985019740
:10104000820F931F9B838A838E819F81009751F12A
:10105000198221C08981482F50E08981282F30E0F2
:101060008E819F81FC01E20FF31F208189899A897B
:10107000840F951FFC01799620838981282F30E009
:101080008E819F81FC01E20FF31F8081882331F064
:1010900089818F5F898389818830E0F2E989FA89C3
:1010A00010A203C0E989FA89118E8E85843010F070
:1010B00083E08E87E989FA898E85868BE989FA89AA
:1010C0008E8581A3E989FA8912A289899A89029673
:1010D0000E942E2089899A890C960E942E20E989E7
:1010E000FA8989899A89918780878E85282F30E0AF
:1010F00084E090E0821B930BE989FA8995878487C5
:10110000E989FA8989899A89938B828B89899A8955
:10111000839660E070E044E050E00E9428238989D3
:101120009A89879660E070E041E050E00E942823B1
:101130008A819B812C813D814C855D85B9010E940E
:101140003A21E989FA89918380838F85988900976C
:1011500031F0EF85F88989899A8991838083649633
:101160000FB6F894DEBF0FBECDBFCF91DF911F91B8
:101170000F91EF90DF90CF90BF90AF909F908F90A6
:101180000895DF93CF9300D0CDB7DEB79A838983DC
:101190000FB6F8940F928091A8038F5F8093A803F5
:1011A0008091A5039091A603009769F489819A81A3
:1011B0009093A6038093A5038091A8038130B9F48E
:1011C0000E94240F14C08091AC03882381F4E09125
:1011D000A503F091A6039689E981FA81868989178A
:1011E00030F089819A819093A6038093A503809122
:1011F000B1038F5F8093B103E981FA819689809171
:10120000AB03891728F4E981FA8186898093AB03BF
:10121000E981FA818689282F30E0C901880F991F5A
:10122000880F991F880F991F820F931FAC01495493
:101230005C4F89819A819C012E5F3F4FCA01B901A1
:101240000E943E200F900FBE8091AC03882361F076
:10125000E091A503F091A6039689E981FA81868938
:10126000981710F40E94E2210F900F90CF91DF9118
:101270000895DF93CF9300D000D000D0CDB7DEB774
:101280009C838B830FB6F8940F928B819C8100977F
:1012900039F48091A5039091A6039E838D8304C0A9
:1012A0008B819C819E838D838D819E819A8389838E
:1012B00089819A8102960E94EE20E981FA818489CF
:1012C0009589009729F089819A810C960E94EE20D9
:1012D0008091B1038F5F8093B1032091A50330917A
:1012E000A60389819A818217930781F489819A8163
:1012F0009C012E5F3F4F8AEF93E0B9010E943E2090
:101300008091A7038F5F8093A7030BC08091A803F0
:1013100081508093A80389819A810E94F20F0E94D4
:10132000FE0F0F900FBE8091AC03882359F02091DF
:10133000A5033091A60389819A818217930711F43E
:101340000E94E22126960FB6F894DEBF0FBECDBFF5
:10135000CF91DF910895DF93CF93CDB7DEB72A9772
:101360000FB6F894DEBF0FBECDBF98878F837A8704
:1013700069871B820E94B70A8091A9039091AA03F2
:101380009A838983EF81F8852081318189859A85C7
:10139000820F931F9E838D83EF81F8852081318199
:1013A00089819A818217930798F4EF81F8852081CB
:1013B00031818D819E8182179307E0F42D813E81DA
:1013C00089819A8182179307A8F481E08B8312C0E8
:1013D000EF81F885208131818D819E81821793076D
:1013E00038F02D813E8189819A818217930710F40C
:1013F00081E08B83EF81F8858D819E81918380834D
:101400008B81882349F08D819E8129813A81821BBD
:10141000930B60E00E94E4170E94C30A8C838C81C6
:10142000882311F40E94E2218B812A960FB6F8944A
:10143000DEBF0FBECDBFCF91DF910895DF93CF9375
:1014400000D00F92CDB7DEB79B838A8319828A8141
:101450009B81009751F00E94B70A8A819B8160E0CE
:101460000E94E4170E94C30A89838981882311F4AA
:101470000E94E2210F900F900F90CF91DF9108957D
:10148000AF92BF92CF92DF92EF92FF920F931F9392
:10149000DF93CF93CDB7DEB72A970FB6F894DEBFB0
:1014A0000FBECDBF1B821A821D821C82CE01029606
:1014B0009E012C5F3F4FAE014A5F5F4FB9010E9412
:1014C0009200EE80FF8008851985EC81FD81AA815C
:1014D000BB8182E19FE026E631E0B901A8019701D6
:1014E00000E010E0EE246F015D010E9486079093FA
:1014F000B5038093B4038091B4039091B503009732
:1015000019F081E0898301C019828981813081F4D9
:10151000F8948FEF9FEF9093B3038093B20381E031
:101520008093AC031092AA031092A9030E94A621F3
:10153000809165012A960FB6F894DEBF0FBECDBF2D
:10154000CF91DF911F910F91FF90EF90DF90CF909F
:10155000BF90AF900895DF93CF93CDB7DEB7F894E7
:101560001092AC030E94DB21CF91DF910895DF93AD
:10157000CF93CDB7DEB78091B6038F5F8093B6036C
:10158000CF91DF910895DF93CF9300D000D00F92D9
:10159000CDB7DEB71D821C821B820FB6F8940F9266
:1015A0008091B60381508093B6038091B60388235F
:1015B00009F07CC08091A803882309F477C045C056
:1015C000E091F603F091F703868197819D838C83E8
:1015D0008C819D810C960E94EE208C819D810296CB
:1015E0000E94EE20EC81FD8196898091AB038917E2
:1015F00028F4EC81FD8186898093AB03EC81FD8129
:101600008689282F30E0C901880F991F880F991FFC
:10161000880F991F820F931FAC0149545C4F8C8136
:101620009D819C012E5F3F4FCA01B9010E943E205F
:10163000EC81FD819689E091A503F091A60386894E
:10164000981718F081E08093AF038091F10388230D
:1016500009F0B6CF8C819D81009711F00E94FE0F9A
:101660008091AD039091AE039A83898389819A8199
:101670000097A1F00E94DE0B882319F081E080938F
:10168000AF0389819A8101979A83898389819A819D
:10169000009781F71092AE031092AD038091AF03D3
:1016A000882321F081E08B830E94E2210F900FBEFE
:1016B0008B810F900F900F900F900F90CF91DF9133
:1016C0000895DF93CF9300D0CDB7DEB70FB6F8946F
:1016D0000F928091A9039091AA039A8389830F9016
:1016E0000FBE89819A810F900F90CF91DF9108955D
:1016F000DF93CF9300D00F92CDB7DEB719828091E0
:10170000A9039091AA039B838A838A819B810F906E
:101710000F900F90CF91DF910895DF93CF93CDB7C6
:10172000DEB78091A803CF91DF910895DF93CF9327
:1017300000D000D000D0CDB7DEB79C838B838B81E7
:101740009C81009739F48091A5039091A6039E8314
:101750008D8304C08B819C819E838D838D819E812E
:101760009A83898389819A81499626960FB6F8943F
:10177000DEBF0FBECDBFCF91DF910895DF93CF9332
:1017800000D00F92CDB7DEB79B838A830E94B70A41
:101790002091AD033091AE038A819B81820F931F0C
:1017A0009093AE038093AD030E94C30A898389811D
:1017B0000F900F900F90CF91DF910895DF93CF930B
:1017C000CDB7DEB729970FB6F894DEBF0FBECDBFF9
:1017D0001D828091B603882309F0C6C08091A903B9
:1017E0009091AA0301969C838B838B819C8190931B
:1017F000AA038093A9038B819C810097D9F48091DF
:10180000ED039091EE039A8389838091EF03909189
:10181000F0039093EE038093ED0389819A81909376
:10182000F0038093EF038091B0038F5F8093B00348
:101830000E94FE0F2091B2033091B3038B819C81F3
:101840008217930708F471C0E091ED03F091EE0365
:101850008081882339F48FEF9FEF9093B3038093B7
:10186000B20363C0E091ED03F091EE030580F681D1
:10187000E02D8681978199878887E885F98582811F
:1018800093819F838E832B813C818E819F8128173A
:10189000390738F48E819F819093B3038093B2030C
:1018A00044C08885998502960E94EE20E885F985D6
:1018B00084899589009729F0888599850C960E94DE
:1018C000EE20E885F98596898091AB03891728F485
:1018D000E885F98586898093AB03E885F985868953
:1018E000282F30E0C901880F991F880F991F880F92
:1018F000991F820F931FAC0149545C4F88859985CD
:101900009C012E5F3F4FCA01B9010E943E20E8852D
:10191000F9859689E091A503F091A6038689981729
:1019200008F492CF81E08D838FCFE091A503F091F1
:10193000A6038689282F30E0C901880F991F880FD8
:10194000991F880F991F820F931FFC01E954FC4FC8
:101950008081823010F081E08D838091AF038823F5
:1019600061F081E08D8309C08091AD039091AE0359
:1019700001969093AE038093AD038D8129960FB6A7
:10198000F894DEBF0FBECDBFCF91DF910895DF93F6
:10199000CF9300D00F92CDB7DEB78091B6038823E6
:1019A00021F081E08093AF0375C01092AF03E09106
:1019B000A503F091A60320813181E091A503F09168
:1019C000A6038789908D8217930768F08091A503FD
:1019D0009091A6032091A5033091A603275E3F4F67
:1019E000B9010E94EA008091AB038B8303C08B8115
:1019F00081508B838B81282F30E0C901880F991F7C
:101A0000880F991F880F991F820F931FFC01E954BB
:101A1000FC4F8081882359F38B81282F30E0C90146
:101A2000880F991F880F991F880F991F820F931F86
:101A300089549C4F9A838983E981FA810180F281DC
:101A4000E02D82819381E981FA8192838183E9810A
:101A5000FA812181328189819A8103962817390779
:101A600059F4E981FA810180F281E02D828193812C
:101A7000E981FA8192838183E981FA810180F2818F
:101A8000E02D868197819093A6038093A5038B8197
:101A90008093AB030F900F900F90CF91DF9108953B
:101AA000DF93CF9300D000D0CDB7DEB79A83898380
:101AB0007C836B838091A5039091A6039C01245F96
:101AC0003F4F89819A81B9010E9482208B819C813C
:101AD00061E00E94E4170F900F900F900F90CF914C
:101AE000DF910895DF93CF9300D000D000D0CDB721
:101AF000DEB79A8389837C836B835E834D83E09119
:101B0000A503F091A6038B819C81906895878487BB
:101B10008091A5039091A6039C01245F3F4F89818A
:101B20009A81B9010E943E208D819E8161E00E94D0
:101B3000E41726960FB6F894DEBF0FBECDBFCF9147
:101B4000DF910895DF93CF9300D000D00F92CDB7EF
:101B5000DEB79D838C83EC81FD810580F681E02DCD
:101B6000868197819B838A838A819B810C960E94C0
:101B7000EE208091B603882361F58A819B810296CD
:101B80000E94EE20EA81FB8196898091AB03891740
:101B900028F4EA81FB8186898093AB03EA81FB818B
:101BA0008689282F30E0C901880F991F880F991F57
:101BB000880F991F820F931FAC0149545C4F8A8193
:101BC0009B819C012E5F3F4FCA01B9010E943E20BC
:101BD0000AC08A819B819C01245F3F4F81EF93E083
:101BE000B9010E943E20EA81FB819689E091A5031C
:101BF000F091A6038689891730F481E0898381E01A
:101C00008093AF0301C0198289810F900F900F90CC
:101C10000F900F90CF91DF910895DF93CF9300D075
:101C200000D000D0CDB7DEB79C838B837E836D83DD
:101C30008D819E819068EB81FC8191838083EB8113
:101C4000FC81868197819A8389838B819C810E9404
:101C5000EE2089819A8102960E94EE20E981FA8124
:101C600096898091AB03891728F4E981FA818689E6
:101C70008093AB03E981FA818689282F30E0C9017E
:101C8000880F991F880F991F880F991F820F931F24
:101C9000AC0149545C4F89819A819C012E5F3F4F72
:101CA000CA01B9010E943E20E981FA819689E0913A
:101CB000A503F091A6038689891718F481E0809323
:101CC000AF0326960FB6F894DEBF0FBECDBFCF91FF
:101CD000DF910895DF93CF9300D0CDB7DEB79A831D
:101CE00089830FB6F8940F928091B003E981FA814D
:101CF00080838091A9039091AA03E981FA8192835C
:101D000081830F900FBE0F900F90CF91DF910895B8
:101D1000DF93CF9300D0CDB7DEB79A8389838091CC
:101D2000B003E981FA8180838091A9039091AA038D
:101D3000E981FA81928381830F900F90CF91DF9197
:101D40000895DF93CF93CDB7DEB729970FB6F894F8
:101D5000DEBF0FBECDBF9F838E83798768870FB6A6
:101D6000F8940F928091A9039091AA039C838B838E
:101D7000EE81FF81218132818B819C81821B930BBB
:101D80009A838983EE81FF8190818091B0039817B7
:101D900081F0EE81FF81218132818B819C818217CC
:101DA000930738F081E08D83E885F98511821082F0
:101DB00023C0E885F9852081318189819A81821744
:101DC0009307A0F4E885F9852081318189819A8182
:101DD000A901481B590BCA01E885F98591838083C5
:101DE0008E819F810E94880E1D8206C0E885F9853C
:101DF0001182108281E08D830F900FBE8D81299614
:101E00000FB6F894DEBF0FBECDBFCF91DF9108951E
:101E1000DF93CF93CDB7DEB781E08093AF03CF914F
:101E2000DF910895DF93CF9300D0CDB7DEB79A83CB
:101E300089830E94610F8091B703823010F00E9465
:101E4000E2210E94FB00F5CFDF93CF930F92CDB735
:101E5000DEB7198213C08981282F30E0C901880FAD
:101E6000991F880F991F880F991F820F931F8954FC
:101E70009C4F0E94042089818F5F898389818430EF
:101E800050F38BED93E00E94042084EE93E00E94D7
:101E9000042081EF93E00E9404208AEF93E00E94E7
:101EA00004208BED93E09093EE038093ED0384EE9A
:101EB00093E09093F0038093EF030F90CF91DF9125
:101EC0000895DF93CF9300D0CDB7DEB720C00FB613
:101ED000F8940F92E091FF03F091000486819781BE
:101EE0009A83898389819A8102960E94EE2080914B
:101EF000A80381508093A8038091A7038150809309
:101F0000A7030F900FBE89819A810E94F20F8091E2
:101F1000A7038823E1F60F900F90CF91DF910895EA
:101F2000DF93CF9300D000D000D0CDB7DEB79E8333
:101F30008D8319821A821B821C8210C08D819E8122
:101F400001969E838D8389819A81AB81BC810196A4
:101F5000A11DB11D89839A83AB83BC83ED81FE8172
:101F60008081853A59F389819A8126960FB6F89433
:101F7000DEBF0FBECDBFCF91DF910895DF93CF932A
:101F8000CDB7DEB729970FB6F894DEBF0FBECDBF31
:101F90009F838E838E819F81009739F48091A50362
:101FA0009091A6039987888704C08E819F81998725
:101FB0008887888599859D838C83EC81FD818789BD
:101FC000908D9B838A838A819B810E94900F898355
:101FD000898129960FB6F894DEBF0FBECDBFCF9191
:101FE000DF910895DF93CF9300D0CDB7DEB79A830A
:101FF00089830F900F90CF91DF910895DF93CF9356
:10200000CDB7DEB7E091ED03F091EE038081882338
:1020100039F48FEF9FEF9093B3038093B2030DC019
:10202000E091ED03F091EE030580F681E02D8081D3
:1020300091819093B3038093B203CF91DF91089580
:10204000DF93CF9300D0CDB7DEB78091A5039091F9
:10205000A6039A83898389819A810F900F90CF91EB
:10206000DF910895DF93CF9300D000D00F92CDB7CA
:10207000DEB79D838C838C819D819B838A831982AB
:102080008C819D81009709F482C0EA81FB81968949
:10209000E091A503F091A6038689981708F06BC01C
:1020A000EA81FB818485958599237CF0E091A503E5
:1020B000F091A6038689282F30E084E090E0821B0F
:1020C000930BEA81FB8195878487EA81FB814285B6
:1020D0005385EA81FB818689282F30E0C901880F6A
:1020E000991F880F991F880F991F820F931F89547A
:1020F0009C4F48175907A1F58A819B8102960E943F
:10210000EE20E091A503F091A6038689EA81FB8188
:10211000868BEA81FB8196898091AB03891728F42D
:10212000EA81FB8186898093AB03EA81FB81868902
:10213000282F30E0C901880F991F880F991F880F39
:10214000991F820F931FAC0149545C4F8A819B8178
:102150009C012E5F3F4FCA01B9010E943E2008C07A
:10216000E091A503F091A6038689EA81FB81868B25
:1021700081E089830CC0EA81FB8191A1E091A503F4
:10218000F091A6038689981710F481E089838981EC
:102190000F900F900F900F900F90CF91DF910895B7
:1021A000DF93CF9300D000D00F92CDB7DEB79D83E1
:1021B0008C838C819D819B838A8319828C819D81F4
:1021C000009709F456C0EA81FB8182A18150EA811F
:1021D000FB8182A3EA81FB819689EA81FB8181A14F
:1021E000981709F446C0EA81FB8182A1882309F08F
:1021F00040C08A819B8102960E94EE20EA81FB8189
:1022000081A1EA81FB81868BEA81FB818689282F67
:1022100030E084E090E0821B930BEA81FB8195879C
:102220008487EA81FB8196898091AB03891728F422
:10223000EA81FB8186898093AB03EA81FB818689F1
:10224000282F30E0C901880F991F880F991F880F28
:10225000991F820F931FAC0149545C4F8A819B8167
:102260009C012E5F3F4FCA01B9010E943E2081E0D0
:10227000898389810F900F900F900F900F90CF91CD
:10228000DF910895DF93CF93CDB7DEB728970FB6D0
:10229000F894DEBF0FBECDBF9F838E8368878E818B
:1022A0009F819D838C8381E089838E819F810097AC
:1022B00009F474C0EC81FD8191A18885981718F408
:1022C00088858A8304C0EC81FD8181A18A83EC81A9
:1022D000FD8196898A81981709F460C0EC81FD819F
:1022E00092A18981981709F059C0EC81FD818689F6
:1022F0008B83EC81FD818A81868BEC81FD818485D5
:10230000958599235CF08A81282F30E084E090E065
:10231000821B930BEC81FD8195878487EC81FD8185
:10232000428553858B81282F30E0C901880F991F82
:10233000880F991F880F991F820F931F89549C4FF4
:102340004817590759F58C819D8102960E94EE200D
:10235000EC81FD8196898091AB03891728F4EC818B
:10236000FD8186898093AB03EC81FD818689282FCE
:1023700030E0C901880F991F880F991F880F991F96
:10238000820F931FAC0149545C4F8C819D819C014D
:102390002E5F3F4FCA01B9010E943E2028960FB61A
:1023A000F894DEBF0FBECDBFCF91DF910895DF93CC
:1023B000CF9300D0CDB7DEB7E091A503F091A6038F
:1023C000848595859A838983A091A503B091A603FE
:1023D000E091A503F091A6038689282F30E084E0E0
:1023E00090E0821B930B1D969C938E931C97898182
:1023F0009A810F900F90CF91DF910895DF93CF9343
:10240000CDB7DEB78091A5039091A603009739F070
:10241000E091A503F091A60382A18F5F82A3809132
:10242000A5039091A603CF91DF910895DF93CF93F9
:10243000CDB7DEB728970FB6F894DEBF0FBECDBF7D
:102440008D836E8358874F830FB6F8940F92209137
:10245000A5033091A6038D81882F90E0880F991FE6
:10246000880F991F820F931FFC01B3968081918181
:10247000A281B3810097A105B105C1F42091A50304
:102480003091A6038D81882F90E0820F931FFC016D
:10249000B79681E080838F819885009739F08F818E
:1024A000988561E00E94E4170E94E2210F900FBE20
:1024B0000FB6F8940F922091A5033091A6038D8159
:1024C000882F90E0880F991F880F991F820F931F04
:1024D000FC01B39680819181A281B38189839A8323
:1024E000AB83BC8389819A81AB81BC810097A105B4
:1024F000B105A9F18E818823A1F02091A503309127
:10250000A6038D81882F90E0880F991F880F991F4F
:10251000820F931FFC01B3961082118212821382E4
:102520001EC0E091A503F091A6038D81682F70E095
:1025300089819A81AB81BC819C01AD0121503040E1
:1025400040405040CB01880F991F880F991F8E0F74
:102550009F1FFC01B39620833183428353832091D4
:10256000A5033091A6038D81882F90E0820F931FE1
:10257000FC01B79610820F900FBE89819A81AB81C2
:10258000BC81BC01CD0128960FB6F894DEBF0FBE0A
:10259000CDBFCF91DF910895CF92DF92EF92FF925E
:1025A0000F931F93DF93CF93CDB7DEB72E970FB660
:1025B000F894DEBF0FBECDBF8A834B835C836D83EF
:1025C0007E830F83188729873A87FC86EB86DE8611
:1025D000CD860FB6F8940F922091A5033091A603F3
:1025E0008A81882F90E0820F931FFC01B79680812B
:1025F000823009F447C06091A5037091A6038A81D7
:10260000082F10E08A81882F90E0880F991F880F8B
:10261000991F860F971FFC01B3962081318142815B
:1026200053818B819C81AD81BE8180959095A095D1
:10263000B095282339234A235B23C801880F991FAB
:10264000880F991F860F971FFC01B3962083318353
:10265000428353832091A5033091A6038A81882F5A
:1026600090E0820F931FFC01B79681E080838D85F7
:102670009E85009739F08D859E8561E00E94E41764
:102680000E94E2210F900FBE0FB6F8940F928B8537
:102690009C850097C9F02091A5033091A6038A81FB
:1026A000882F90E0880F991F880F991F820F931F22
:1026B000FC01B39680819181A281B381EB85FC8579
:1026C00080839183A283B3832091A5033091A603D5
:1026D0008A81882F90E0820F931FFC01B79680813A
:1026E000823011F0198231C06091A5037091A60368
:1026F0008A81082F10E08A81882F90E0880F991F27
:10270000880F991F860F971FFC01B3962081318196
:10271000428153818F819885A985BA85809590954E
:10272000A095B095282339234A235B23C801880F3D
:10273000991F880F991F860F971FFC01B39620835E
:1027400031834283538381E089832091A5033091B3
:10275000A6038A81882F90E0820F931FFC01B79611
:1027600010820F900FBE89812E960FB6F894DEBFAF
:102770000FBECDBFCF91DF911F910F91FF90EF90D2
:10278000DF90CF900895EF92FF920F931F93DF9306
:10279000CF93CDB7DEB760970FB6F894DEBF0FBE0C
:1027A000CDBF9E838D836F83288739874A875B8758
:1027B0000C87FE86ED8681E08A838D819E819C83D5
:1027C0008B830FB6F8940F928D859E850097B9F094
:1027D0008F81882F90E02B813C81880F991F880F73
:1027E000991F820F931FFC01B39680819181A28172
:1027F000B381ED85FE8580839183A283B3838F812E
:10280000282F30E08B819C81820F931FFC01B796AB
:10281000808189838F81282F30E08B819C81820F7A
:10282000931FFC01B79682E080838C85282F30E0CF
:10283000388B2F878F8598898230910509F446C09F
:102840002F8538892330310534F48F85988981307C
:10285000910571F093C02F8538892330310509F433
:102860005DC08F8598898430910509F46DC086C05C
:102870008F81082F10E08F81882F90E02B813C8181
:10288000880F991F880F991F820F931FFC01B39621
:10289000208131814281538188859985AA85BB85B4
:1028A000BA01A901482B592B6A2B7B2B2B813C8128
:1028B000C801880F991F880F991F820F931FFC0171
:1028C000B396408351836283738358C08F81082FEE
:1028D00010E02B813C81C801880F991F880F991F38
:1028E000820F931FFC01B39680819181A281B381F5
:1028F000AC01BD014F5F5F4F6F4F7F4F2B813C811C
:10290000C801880F991F880F991F820F931FFC0120
:10291000B396408351836283738330C08F81882F45
:1029200090E02B813C81880F991F880F991F820F9F
:10293000931FFC01B39688859985AA85BB85808302
:102940009183A283B3831AC089818230B1F08F81D1
:10295000882F90E02B813C81880F991F880F991F49
:10296000820F931FFC01B39688859985AA85BB8544
:1029700080839183A283B38301C01A8289818130CD
:10298000B9F58B819C8102960E94EE20EB81FC813F
:1029900096898091AB03891728F4EB81FC818689A5
:1029A0008093AB03EB81FC818689282F30E0C9013D
:1029B000880F991F880F991F880F991F820F931FE7
:1029C000AC0149545C4F8B819C819C012E5F3F4F31
:1029D000CA01B9010E943E20EB81FC819689E091F9
:1029E000A503F091A6038689891710F40E94E221BD
:1029F0000F900FBE8A8160960FB6F894DEBF0FBEAF
:102A0000CDBFCF91DF911F910F91FF90EF9008956F
:102A1000CF92DF92EF92FF920F931F93DF93CF93AA
:102A2000CDB7DEB763970FB6F894DEBF0FBECDBF4C
:102A30009F838E83688729873A874B875C870D87BA
:102A4000FF86EE86D98AC88A81E08A838E819F813B
:102A50009D838C8319828E859F850097B9F0888528
:102A6000882F90E02C813D81880F991F880F991F36
:102A7000820F931FFC01B39680819181A281B38163
:102A8000EE85FF8580839183A283B3838885282F79
:102A900030E08C819D81820F931FFC01B79680816D
:102AA0008B838885282F30E08C819D81820F931F36
:102AB000FC01B79682E080838D85282F30E03B8B28
:102AC0002A8B8A899B898230910509F446C02A891C
:102AD0003B892330310534F48A899B898130910503
:102AE00071F093C02A893B892330310509F45DC018
:102AF0008A899B898430910509F46DC086C08885D8
:102B0000082F10E08885882F90E02C813D81880F68
:102B1000991F880F991F820F931FFC01B396208184
:102B200031814281538189859A85AB85BC85BA0103
:102B3000A901482B592B6A2B7B2B2C813D81C80185
:102B4000880F991F880F991F820F931FFC01B3965E
:102B5000408351836283738358C08885082F10E0B7
:102B60002C813D81C801880F991F880F991F820F02
:102B7000931FFC01B39680819181A281B381AC0146
:102B8000BD014F5F5F4F6F4F7F4F2C813D81C8016B
:102B9000880F991F880F991F820F931FFC01B3960E
:102BA000408351836283738330C08885882F90E08F
:102BB0002C813D81880F991F880F991F820F931FC9
:102BC000FC01B39689859A85AB85BC85808391830A
:102BD000A283B3831AC08B818230B1F08885882F9D
:102BE00090E02C813D81880F991F880F991F820FDB
:102BF000931FFC01B39689859A85AB85BC8580833C
:102C00009183A283B38301C01A828B81813009F042
:102C10004FC08091B603882361F58C819D81029617
:102C20000E94EE20EC81FD8196898091AB0389178B
:102C300028F4EC81FD8186898093AB03EC81FD81D2
:102C40008689282F30E0C901880F991F880F991FA6
:102C5000880F991F820F931FAC0149545C4F8C81E0
:102C60009D819C012E5F3F4FCA01B9010E943E2009
:102C70000AC08C819D819C01245F3F4F81EF93E0CE
:102C8000B9010E943E20EC81FD819689E091A50367
:102C9000F091A6038689891758F488899989009745
:102CA00021F0E889F98981E0808381E08093AF0396
:102CB0008A8163960FB6F894DEBF0FBECDBFCF9169
:102CC000DF911F910F91FF90EF90DF90CF900895CB
:102CD0000F931F93DF93CF93CDB7DEB729970FB62E
:102CE000F894DEBF0FBECDBF9E838D836F8359875F
:102CF00048878D819E819C838B8319828F81282FA9
:102D000030E08B819C81820F931FFC01B7968081FC
:102D10008A838F81282F30E08B819C81820F931FC3
:102D2000FC01B79682E080838F81082F10E02B8111
:102D30003C81C801880F991F880F991F820F931F2C
:102D4000FC01B39680819181A281B381AC01BD0168
:102D50004F5F5F4F6F4F7F4F2B813C81C801880FC2
:102D6000991F880F991F820F931FFC01B396408310
:102D70005183628373838A81813009F04FC08091CF
:102D8000B603882361F58B819C8102960E94EE2018
:102D9000EB81FC8196898091AB03891728F4EB8144
:102DA000FC8186898093AB03EB81FC818689282F87
:102DB00030E0C901880F991F880F991F880F991F4C
:102DC000820F931FAC0149545C4F8B819C819C0105
:102DD0002E5F3F4FCA01B9010E943E200AC08B817D
:102DE0009C819C01245F3F4F81EF93E0B9010E94D9
:102DF0003E20EB81FC819689E091A503F091A6032A
:102E00008689891758F488859985009721F0E88587
:102E1000F98581E0808381E08093AF0329960FB626
:102E2000F894DEBF0FBECDBFCF91DF911F910F9100
:102E30000895DF93CF93CDB7DEB728970FB6F894F8
:102E4000DEBF0FBECDBF9D838C836E838C819D8141
:102E5000009739F48091A5039091A60398878F83FA
:102E600004C08C819D8198878F838F8198859B83F7
:102E70008A830FB6F8940F928E81282F30E08A81D2
:102E80009B81820F931FFC01B7968081823069F489
:102E90008E81282F30E08A819B81820F931FFC0155
:102EA000B796108281E0898301C019820F900FBE0E
:102EB000898128960FB6F894DEBF0FBECDBFCF91A3
:102EC000DF9108950F931F93DF93CF93CDB7DEB7B4
:102ED0002F970FB6F894DEBF0FBECDBF98878F83B4
:102EE00069872A873B874C875D878F819885009704
:102EF00039F48091A5039091A6039F878E8704C023
:102F00008F8198859F878E878E859F859E838D83F1
:102F10000FB6F8940F928985882F90E02D813E811D
:102F2000880F991F880F991F820F931FFC01B3967A
:102F300080819181A281B38189839A83AB83BC8391
:102F40008985082F10E08985882F90E02D813E81AA
:102F5000880F991F880F991F820F931FFC01B3964A
:102F600020813181428153818A859B85AC85BD85D5
:102F700080959095A095B095BA01A9014823592351
:102F80006A237B232D813E81C801880F991F880FFA
:102F9000991F820F931FFC01B39640835183628374
:102FA00073830F900FBE89819A81AB81BC81BC0174
:102FB000CD012F960FB6F894DEBF0FBECDBFCF91D7
:102FC000DF911F910F910895DF93CF93CDB7DEB7B7
:102FD00027970FB6F894DEBF0FBECDBF9E838D83BB
:102FE0006F838091A9039091AA039A83898380912A
:102FF000A5039091A60302960E94EE2029813A81B2
:103000008D819E81820F931F9C838B83E091A5030A
:10301000F091A6038B819C81938382832B813C81D9
:1030200089819A812817390770F48091EF03909174
:10303000F0032091A5033091A6032E5F3F4FB90105
:103040000E9482201EC04091ED035091EE038091BA
:10305000A5039091A6039C012E5F3F4FCA01B901C1
:103060000E9482202091B2033091B3038B819C8116
:103070008217930730F48B819C819093B3038093E4
:10308000B20327960FB6F894DEBF0FBECDBFCF9127
:10309000DF910895DF93CF9300D000D00F92CDB78A
:1030A000DEB79C838B836D838B819C819A8389831C
:1030B0000FB6F8940F92E981FA8140815181E9813C
:1030C000FA81838D282F30E0E981FA81848D882F61
:1030D00090E0BC01269FC001279F900D369F900D68
:1030E0001124840F951FE981FA8195838483E981F6
:1030F000FA81128EE981FA8180819181E981FA81D8
:1031000093838283E981FA8140815181E981FA8147
:10311000838D882F90E09C0121503040E981FA8115
:10312000848D882F90E0BC01269FC001279F900DC1
:10313000369F900D1124840F951FE981FA819783A2
:103140008683E981FA818FEF858FE981FA818FEF9C
:10315000868F8D81882379F4E981FA81808588239F
:10316000A1F089819A8108960E94A20D882369F0B6
:103170000E94E2210AC089819A8108960E94042057
:1031800089819A8141960E9404200F900FBE81E0B0
:103190000F900F900F900F900F90CF91DF910895A7
:1031A0000F931F93DF93CF93CDB7DEB729970FB659
:1031B000F894DEBF0FBECDBF8B836C835E834D83DF
:1031C00038872F8309878F8198859A83898389819E
:1031D0009A81009759F02D813E81E981FA818B8196
:1031E0006C81A90129858F010E94031989819A8127
:1031F00029960FB6F894DEBF0FBECDBFCF91DF91F9
:103200001F910F9108950F931F93DF93CF93CDB725
:10321000DEB727970FB6F894DEBF0FBECDBF898308
:103220006A835C834B832D831F830E838A8188236B
:1032300039F48E819F81EE81FF819183808306C066
:103240008B819C81EE81FF8191838083EE81FF8160
:103250008981838FEE81FF818A81848F8E819F8116
:1032600061E00E944A1827960FB6F894DEBF0FBEA1
:10327000CDBFCF91DF911F910F910895DF93CF9331
:1032800000D0CDB7DEB79A83898389819A81009770
:10329000A1F0E981FA8115821482E981FA81118213
:1032A0001082E981FA81168289819A8160E070E05A
:1032B00040E050E020E00E948E190F900F90CF91D7
:1032C000DF9108950F93DF93CF93CDB7DEB72797A4
:1032D0000FB6F894DEBF0FBECDBF8D837F836E83A4
:1032E00081E08A8319822E813F818A81698140E051
:1032F00050E00D810E94D0189C838B838B819C8130
:103300000E943E198B819C8127960FB6F894DEBFF0
:103310000FBECDBFCF91DF910F910895DF93CF9373
:10332000CDB7DEB72F970FB6F894DEBF0FBECDBF77
:10333000998788877B876A875D874C872E871C8261
:10334000888599859A8389830FB6F8940F92E981CD
:10335000FA81928DE981FA81838D981718F08E8514
:10336000823011F589819A812A853B85B9014E8584
:103370000E94341E8B83E981FA818189882351F070
:1033800089819A8141960E94A20D882341F00E9472
:10339000E22105C08B81882311F00E94E2210F9069
:1033A0000FBE81E08F875CC08C859D85009721F4DE
:1033B0000F900FBE1F8654C08C81882331F4CE013C
:1033C00005960E94880E81E08C830F900FBE0E94AC
:1033D000B70A0FB6F8940F92E981FA81858D8F3F75
:1033E00019F4E981FA81158EE981FA81868D8F3F82
:1033F00019F4E981FA81168E0F900FBECE01059661
:103400009E01245F3F4FB9010E94A10E882309F558
:1034100089819A810E94C21F8823A1F089819A81A3
:1034200008962C853D85B9010E94500D89819A81AD
:103430000E94331F0E94C30A882309F085CF0E948F
:10344000E22182CF89819A810E94331F0E94C30AA0
:103450007BCF89819A810E94331F0E94C30A1F86F5
:103460008F852F960FB6F894DEBF0FBECDBFCF91DC
:10347000DF910895DF93CF93CDB7DEB72D970FB6C9
:10348000F894DEBF0FBECDBF98878F837A87698798
:103490005C874B872D878F8198859C838B831D82CA
:1034A000EB81FC81928DEB81FC81838D981718F064
:1034B0008D85823081F5EB81FC81868D8A83EB815D
:1034C000FC81828D89838B819C8129853A85B90114
:1034D0004D850E94341E8A818F3FA9F4EB81FC81C7
:1034E00081898823A9F08B819C8141960E94A20D3D
:1034F000882371F08B859C85009751F0EB85FC85C6
:1035000081E0808305C08A818F5FEB81FC81868F9B
:1035100081E08E8301C01E828E812D960FB6F894B5
:10352000DEBF0FBECDBFCF91DF910895DF93CF9364
:10353000CDB7DEB72A970FB6F894DEBF0FBECDBF6A
:1035400098878F837A8769878F8198859C838B83FF
:103550001D82EB81FC81828D8A83EB81FC81938DBE
:103560008A81891748F5EB81FC81868D89838A8160
:103570008F5FEB81FC81828F89818F3FA9F4EB8182
:10358000FC8181898823A9F08B819C8141960E94CE
:10359000A20D882371F089859A85009751F0E985FD
:1035A000FA8581E0808305C089818F5FEB81FC8192
:1035B000868F81E08E8301C01E828E812A960FB68F
:1035C000F894DEBF0FBECDBFCF91DF910895DF939A
:1035D000CF93CDB7DEB72E970FB6F894DEBF0FBEF0
:1035E000CDBF998788877B876A875D874C871C82D8
:1035F000888599859B838A830FB6F8940F92EA8118
:10360000FB81828D898389818823F9F08A819B815E
:103610002A853B85B9010E94EC1E89818150EA818F
:10362000FB81828FEA81FB818085882349F08A8132
:103630009B8108960E94A20D882311F00E94E2212E
:103640000F900FBE81E08E8763C08C859D850097AB
:1036500021F40F900FBE1E865BC08C81882331F44D
:10366000CE0105960E94880E81E08C830F900FBEDC
:103670000E94B70A0FB6F8940F92EA81FB81858DFC
:103680008F3F19F4EA81FB81158EEA81FB81868DDB
:103690008F3F19F4EA81FB81168E0F900FBECE0189
:1036A00005969E01245F3F4FB9010E94A10E882319
:1036B00009F58A819B810E94861F8823A1F08A8157
:1036C0009B8141962C853D85B9010E94500D8A81D0
:1036D0009B810E94331F0E94C30A882309F08CCF6C
:1036E0000E94E22189CF8A819B810E94331F0E9420
:1036F000C30A82CF8A819B810E94331F0E94C30A22
:103700008A819B810E94861F882309F475CF1E86BB
:103710008E852E960FB6F894DEBF0FBECDBFCF912B
:10372000DF910895DF93CF93CDB7DEB72E970FB615
:10373000F894DEBF0FBECDBF9B878A877D876C87DD
:103740001E828A859B859D838C831B820FB6F8948D
:103750000F92EC81FD81828D8A838A81882321F1F9
:103760008A818150EC81FD81828FEC81FD81808195
:103770009181009731F40E94FE11EC81FD819583C7
:103780008483EC81FD818085882349F08C819D8133
:1037900008960E94A20D882311F00E94E2210F904A
:1037A0000FBE81E08E8789C08C859D85009721F4AE
:1037B0000F900FBE1E8681C08E81882331F4CE010A
:1037C00007960E94880E81E08E830F900FBE0E94A4
:1037D000B70A0FB6F8940F92EC81FD81858D8F3F6B
:1037E00019F4EC81FD81158EEC81FD81868D8F3F72
:1037F00019F4EC81FD81168E0F900FBECE01079655
:103800009E01245F3F4FB9010E94A10E882399F5C4
:103810008C819D810E94861F882331F1EC81FD817E
:1038200080819181009761F40FB6F8940F92EC813A
:10383000FD81848195810E9432108B830F900FBE91
:103840008C819D8141962C853D85B9010E94500D4A
:103850008C819D810E94331F0E94C30A882309F036
:1038600075CF0E94E22172CF8C819D810E94331F0F
:103870000E94C30A6BCF8C819D810E94331F0E94DE
:10388000C30A8C819D810E94861F882309F45ECF24
:103890008B81882389F00FB6F8940F928C819D81DB
:1038A0000E94131E8983EC81FD8184819581698149
:1038B0000E9442110F900FBE1E868E852E960FB667
:1038C000F894DEBF0FBECDBFCF91DF910895DF9397
:1038D000CF93CDB7DEB760970FB6F894DEBF0FBEBB
:1038E000CDBF9B878A877D876C875F874E871E82C7
:1038F0008A859B859B838A830FB6F8940F92EA8111
:10390000FB81828D89838981882331F1EA81FB8162
:10391000868197819D838C838A819B812C853D85BF
:10392000B9010E94EC1EEA81FB818C819D81978305
:103930008683EA81FB818189882349F08A819B8182
:1039400041960E94A20D882311F00E94E2210F905F
:103950000FBE81E0888B63C08E859F85009721F420
:103960000F900FBE188A5BC08E81882331F4CE0180
:1039700007960E94880E81E08E830F900FBE0E94F2
:10398000B70A0FB6F8940F92EA81FB81858D8F3FBD
:1039900019F4EA81FB81158EEA81FB81868D8F3FC8
:1039A00019F4EA81FB81168E0F900FBECE010796A7
:1039B0009E01225F3F4FB9010E94A10E882309F5A5
:1039C0008A819B810E94861F8823A1F08A819B8126
:1039D00041962E853F85B9010E94500D8A819B81B9
:1039E0000E94331F0E94C30A882309F085CF0E94DA
:1039F000E22182CF8A819B810E94331F0E94C30AE9
:103A00007BCF8A819B810E94331F0E94C30A8A81D7
:103A10009B810E94861F882309F46ECF188A8889AB
:103A200060960FB6F894DEBF0FBECDBFCF91DF9189
:103A30000895DF93CF93CDB7DEB72C970FB6F894E8
:103A4000DEBF0FBECDBF98878F837A8769875C877B
:103A50004B878F8198859C838B831D82EB81FC81B2
:103A6000828D8A838A81882381F1EB81FC81858D17
:103A700089838B819C8129853A85B9010E94EC1E3E
:103A80008A818150EB81FC81828F89818F3FA9F4EB
:103A9000EB81FC8180858823A9F08B819C8108962D
:103AA0000E94A20D882371F08B859C85009751F0B0
:103AB000EB85FC8581E0808305C089818F5FEB8188
:103AC000FC81858F81E08E8301C01E828E812C96C1
:103AD0000FB6F894DEBF0FBECDBFCF91DF91089532
:103AE000DF93CF93CDB7DEB72A970FB6F894DEBF3A
:103AF0000FBECDBF98878F837A8769878F8198851E
:103B00009A8389831D82E981FA81828D8823B1F0AD
:103B1000E981FA81868197819C838B8389819A814F
:103B200029853A85B9010E94EC1EE981FA818B81D1
:103B30009C819783868381E08E8301C01E828E8163
:103B40002A960FB6F894DEBF0FBECDBFCF91DF919E
:103B50000895DF93CF9300D00F92CDB7DEB79B834C
:103B60008A830FB6F8940F92EA81FB81828D898354
:103B70000F900FBE89810F900F900F90CF91DF9122
:103B80000895DF93CF9300D000D00F92CDB7DEB76A
:103B90009D838C838C819D819A8389830FB6F89451
:103BA0000F92E981FA81938DE981FA81828D292F23
:103BB000281B822F8B830F900FBE8B810F900F904D
:103BC0000F900F900F90CF91DF910895DF93CF93D7
:103BD00000D000D00F92CDB7DEB79D838C838C814F
:103BE0009D819A838983E981FA81828D8B838B8180
:103BF0000F900F900F900F900F90CF91DF9108953D
:103C0000DF93CF9300D000D0CDB7DEB79C838B83FA
:103C10008B819C819A8389830F900F900F900F90D6
:103C2000CF91DF910895DF93CF9300D00F92CDB75E
:103C3000DEB79B838A83EA81FB818189882361F0D7
:103C4000EA81FB810688F789E02D80819181982F98
:103C500084E0891B898301C0198289810F900F90AC
:103C60000F90CF91DF910895DF93CF93CDB7DEB75B
:103C700027970FB6F894DEBF0FBECDBF9C838B8312
:103C80007E836D834F831A82EB81FC81828D8983D1
:103C9000EB81FC81848D882399F4EB81FC81808108
:103CA0009181009709F089C0EB81FC818481958125
:103CB0000E94D0108A83EB81FC81158214827DC022
:103CC0008F81882399F5EB81FC8162817381EB817F
:103CD000FC81848D482F50E02D813E81CB01B901BC
:103CE0000E941F23EB81FC8122813381EB81FC81C7
:103CF000848D882F90E0820F931FEB81FC8193834A
:103D00008283EB81FC8122813381EB81FC81848180
:103D100095812817390708F450C0EB81FC81808118
:103D20009181EB81FC819383828347C0EB81FC818D
:103D300066817781EB81FC81848D482F50E02D8155
:103D40003E81CB01B9010E941F23EB81FC812681BA
:103D50003781EB81FC81848D882F90E0909581954F
:103D60009F4F820F931FEB81FC8197838683EB81AA
:103D7000FC8126813781EB81FC818081918128172C
:103D8000390790F4EB81FC8124813581EB81FC8142
:103D9000848D882F90E0909581959F4F820F931F7F
:103DA000EB81FC81978386838F81823031F4898116
:103DB000882319F089818150898389818F5FEB8104
:103DC000FC81828F8A8127960FB6F894DEBF0FBEE2
:103DD000CDBFCF91DF910895DF93CF9300D000D076
:103DE000CDB7DEB79A8389837C836B83E981FA81BF
:103DF000848D882389F1E981FA8126813781E981DF
:103E0000FA81848D882F90E0820F931FE981FA81D7
:103E100097838683E981FA8126813781E981FA8156
:103E2000848195812817390740F0E981FA818081E2
:103E30009181E981FA8197838683E981FA814681BC
:103E40005781E981FA81848D282F30E08B819C8114
:103E5000BA01A9010E941F230F900F900F900F909D
:103E6000CF91DF910895DF93CF9300D000D0CDB7ED
:103E7000DEB79C838B830FB6F8940F92EB81FC81A5
:103E8000868D8A8311C0EB81FC818189882379F03A
:103E90008B819C8141960E94A20D882311F00E9483
:103EA000080F8A8181508A838A81181664F3EB8116
:103EB000FC818FEF868F0F900FBE0FB6F8940F9294
:103EC000EB81FC81858D898311C0EB81FC8180852C
:103ED000882379F08B819C8108960E94A20D88230B
:103EE00011F00E94080F89818150898389811816F9
:103EF00064F3EB81FC818FEF858F0F900FBE0F90E5
:103F00000F900F900F90CF91DF910895DF93CF9393
:103F100000D00F92CDB7DEB79B838A830FB6F8949B
:103F20000F92EA81FB81828D882319F481E08983D5
:103F300001C019820F900FBE89810F900F900F90D2
:103F4000CF91DF910895DF93CF9300D000D00F92EF
:103F5000CDB7DEB79D838C838C819D819A838983C5
:103F6000E981FA81828D882319F481E08B8301C075
:103F70001B828B810F900F900F900F900F90CF911D
:103F8000DF910895DF93CF9300D00F92CDB7DEB7C6
:103F90009B838A830FB6F8940F92EA81FB81928DFE
:103FA000EA81FB81838D981719F481E0898301C030
:103FB00019820F900FBE89810F900F900F90CF91B3
:103FC000DF910895DF93CF9300D000D00F92CDB74B
:103FD000DEB79D838C838C819D819A838983E9815F
:103FE000FA81928DE981FA81838D981719F481E025
:103FF0008B8301C01B828B810F900F900F900F90CD
:104000000F90CF91DF910895DF93CF9300D0CDB77C
:10401000DEB79A83898389819A810396E981FA813F
:1040200092838183E981FA818FEF9FEF9483838369
:1040300089819A810396E981FA81968385838981B2
:104040009A810396E981FA8190878783E981FA81D1
:1040500010820F900F90CF91DF910895DF93CF934F
:1040600000D0CDB7DEB79A838983E981FA811186C2
:1040700010860F900F90CF91DF910895DF93CF932B
:1040800000D000D000D0CDB7DEB79C838B837E8379
:104090006D83EB81FC81818192819A838983ED819B
:1040A000FE8189819A8193838283E981FA81848167
:1040B0009581ED81FE8195838483E981FA81048075
:1040C000F581E02D8D819E8193838283E981FA8140
:1040D0008D819E8195838483ED81FE818B819C817E
:1040E00091878087EB81FC8180818F5FEB81FC81F0
:1040F000808326960FB6F894DEBF0FBECDBFCF915A
:10410000DF910895DF93CF93CDB7DEB728970FB631
:10411000F894DEBF0FBECDBF9E838D8378876F83FB
:10412000EF81F885808191819A83898389819A8141
:104130002FEF8F3F920739F4ED81FE8187819085C3
:104140009C838B8318C08D819E8103969C838B8377
:1041500006C0EB81FC81828193819C838B83EB8100
:10416000FC810280F381E02D2081318189819A8157
:104170008217930770F7EB81FC8182819381EF8135
:10418000F88593838283EF81F8850280F381E02DA7
:104190008F81988595838483EF81F8858B819C81BD
:1041A00095838483EB81FC818F81988593838283BF
:1041B000EF81F8858D819E8191878087ED81FE81D9
:1041C00080818F5FED81FE81808328960FB6F89401
:1041D000DEBF0FBECDBFCF91DF910895DF93CF93A8
:1041E00000D000D0CDB7DEB79C838B83EB81FC8100
:1041F000808591859A838983EB81FC81A281B3813B
:10420000EB81FC818481958115969C938E93149704
:10421000EB81FC81A481B581EB81FC81828193815A
:1042200013969C938E931297E981FA8121813281B2
:104230008B819C812817390741F4EB81FC818481B3
:104240009581E981FA8192838183EB81FC811186DA
:104250001086E981FA8180818150E981FA81808329
:10426000E981FA8180810F900F900F900F90CF918C
:10427000DF910895DF93CF93CDB7DEB728970FB6C0
:10428000F894DEBF0FBECDBF9C838B837E836D838E
:1042900058874F838D819E819A8389838981EB81A1
:1042A000FC8180838B819C8101979C838B83898196
:1042B0009A81892F99279A8389838981EB81FC814F
:1042C00080838B819C8101979C838B83EB81FC8114
:1042D00010828B819C8101979C838B83EB81FC8175
:1042E00080E880838B819C8101979C838B83EB8109
:1042F000FC8110828B819C8147979C838B838F816B
:1043000098859A8389838981EB81FC8180838B8165
:104310009C8101979C838B8389819A81892F99271E
:104320009A8389838981EB81FC8180838B819C8145
:1043300007979C838B838B819C8128960FB6F8947A
:10434000DEBF0FBECDBFCF91DF910895DF93CF9336
:10435000CDB7DEB70E94F122A091A503B091A603CC
:10436000CD91CDBFDD91DEBFFF91EF91DF91CF9178
:10437000BF91AF919F918F917F916F915F914F917D
:104380003F912F911F910F91FF90EF90DF90CF9071
:10439000BF90AF909F908F907F906F905F904F9065
:1043A0003F902F901F900F900FBE0F90089581E0C7
:1043B000CF91DF910895DF93CF93CDB7DEB7CF9143
:1043C000DF9108950F920FB6F8940F921F92112467
:1043D0002F923F924F925F926F927F928F929F9215
:1043E000AF92BF92CF92DF92EF92FF920F931F9303
:1043F0002F933F934F935F936F937F938F939F93ED
:10440000AF93BF93CF93DF93EF93FF93A091A50357
:10441000B091A6030DB60D920EB60D920E94C70C78
:10442000A091A503B091A603CD91CDBFDD91DEBFD4
:10443000FF91EF91DF91CF91BF91AF919F918F91BC
:104440007F916F915F914F913F912F911F910F91AC
:10445000FF90EF90DF90CF90BF90AF909F908F90A4
:104460007F906F905F904F903F902F901F900F9094
:104470000FBE0F9008950F920FB6F8940F921F92EF
:1044800011242F923F924F925F926F927F928F9260
:104490009F92AF92BF92CF92DF92EF92FF920F93D3
:1044A0001F932F933F934F935F936F937F938F93BC
:1044B0009F93AF93BF93CF93DF93EF93FF93A0911D
:1044C000A503B091A6030DB60D920EB60D920E94F3
:1044D000C70CA091A503B091A603CD91CDBFDD91EE
:1044E000DEBFFF91EF91DF91CF91BF91AF919F918F
:1044F0008F917F916F915F914F913F912F911F917C
:104500000F91FF90EF90DF90CF90BF90AF909F9072
:104510008F907F906F905F904F903F902F901F9063
:104520000F900FBE0F9018950F920FB6F8940F9240
:104530001F9211242F923F924F925F926F927F921F
:104540008F929F92AF92BF92CF92DF92EF92FF92A3
:104550000F931F932F933F934F935F936F937F938B
:104560008F939F93AF93BF93CF93DF93EF93FF937B
:10457000A091A503B091A6030DB60D920EB60D92B3
:104580000E94DE0B882311F00E94C70CA091A503A6
:10459000B091A603CD91CDBFDD91DEBFFF91EF912C
:1045A000DF91CF91BF91AF919F918F917F916F914B
:1045B0005F914F913F912F911F910F91FF90EF903D
:1045C000DF90CF90BF90AF909F908F907F906F9033
:1045D0005F904F903F902F901F900F900FBE0F90C5
:1045E0000895DF93CF93CDB7DEB70E946203CF91DA
:1045F000DF9108950E9494221895A1E21A2EAA1B19
:10460000BB1BFD010DC0AA1FBB1FEE1FFF1FA21782
:10461000B307E407F50720F0A21BB30BE40BF50B7F
:10462000661F771F881F991F1A9469F76095709508
:10463000809590959B01AC01BD01CF010895FB01D0
:10464000DC0102C001900D9241505040D8F708950E
:10465000DC0101C06D9341505040E0F70895FB012B
:10466000DC014150504048F001900D920020C9F704
:1046700001C01D9241505040E0F70895FB019F0199
:10468000E8944230C4F04532B4F44A3029F497FB40
:104690001EF4909581959F4F642F77270E946F237A
:1046A000805D8A330CF0895D8193CB010097A1F77F
:1046B00016F45DE251931082C9010C945F23DC0172
:1046C000FC01672F71917723E1F7329704C07C9149
:1046D0006D9370836291AE17BF07C8F30895AA1B4C
:1046E000BB1B51E107C0AA1FBB1FA617B70710F0DD
:1046F000A61BB70B881F991F5A95A9F7809590950F
:0A470000BC01CD010895F894FFCF2D
:10470A0000131400FF00FF06071516170001020325
:10471A000405FF0FFF000F08090A0B0C0D0E1011FC
:10472A00126162636465666768696A6B6C6D6E6F55
:10473A00707172737475767778797A3031320A0DBE
:10474A000054455354006572726F723A200000019A
:10475A0002030405000003030202554152540001FA
:0C476A0000575444000349444C45000033
:00000001FF
